:1000000000308A001F280000FD308316850083120F
:100010008A110A123428223084008313000803193D
:100020001E280630F800F701F70B1428F80B1328E8
:100030007B30F700F70B1A28800B11280800030803
:100040001F398300831603170908C0398900031379
:100050001F129F1200300317880083128701880146
:1000600089018313031304288316851083128514D2
:100070000230A100FA30A2000B20A10B3A2883160F
:100080008510831285100230A100FA30A2000B20E7
:08009000A10B45283428630090
:04400E00E22FFF3F5F
:00000001FF
;PIC16F887
;CRC=2AC0  CREATED="23-feb.-22 17:37"
