:1000000000308A0018280000223084008313000882
:10001000031917280630F800F701F70B0D28F80B25
:100020000C287B30F700F70B1328800B0A280800F8
:1000300003081F398300831603170908C039890094
:1000400003131F129F1200300317880083128701C9
:10005000880189018313FD30831603138500851001
:10006000831285140230A100FA30A2000420A10BF3
:10007000342883168510831285100230A100FA30CF
:0E008000A2000420A10B3F2883162F28630046
:04400E00E22FFF3F5F
:00000001FF
;PIC16F887
;CRC=F182  CREATED="29-ago.-23 13:41"
