:1000000000308A001F280000FD308316850083120F
:100010008A110A122C282230840083130008031945
:100020001E280630F800F701F70B1428F80B1328E8
:100030007B30F700F70B1A28800B11280800030803
:100040001F39830083161F149F141F159F1107303B
:100050009C00831383120428831685108312851451
:100060000230A100FA30A2000B20A10B3228831627
:100070008510831285100230A100FA30A2000B20F7
:08008000A10B3D282C286300B0
:02400E00723FFF
:00000001FF
;PIC16F877A
;CRC=DD48  CREATED="23-feb.-22 17:37"
